:020000040800F2
:1000000000000220B9020008BF020008C302000875
:1000100035030008390300088103000800000000D0
:10002000000000000000000000000000C9030008FC
:10003000CD03000800000000D1030008D50300082C
:10004000E5030008E5030008E5030008E5030008F0
:10005000E5030008E5030008E5030008E5030008E0
:10006000E5030008E5030008E5030008E5030008D0
:10007000E5030008E5030008E5030008E5030008C0
:10008000E5030008E5030008E5030008E5030008B0
:10009000E5030008E5030008E5030008E5030008A0
:1000A000E5030008E5030008E5030008E503000890
:1000B000E5030008E5030008E5030008E503000880
:1000C000E5030008E5030008E5030008E503000870
:1000D000E5030008E5030008E5030008E503000860
:1000E000E5030008E5030008E5030008E503000850
:1000F000E5030008E5030008E5030008E503000840
:10010000E5030008E5030008E5030008E50300082F
:10011000E5030008E5030008E5030008E50300081F
:10012000E5030008E5030008E5030008E50300080F
:10013000E5030008E5030008E5030008E5030008FF
:10014000E5030008E5030008E5030008E5030008EF
:10015000E5030008E5030008E5030008E5030008DF
:10016000E5030008E5030008E5030008E5030008CF
:10017000E5030008E5030008E503000800000000AF
:10018000E5030008E503000800B583B000F0A6FF12
:10019000384B394A1360394A1360394906E011680F
:1001A0001960043304329842F9D82146354B9942FC
:1001B00005D20A684B6801F10C048868F3E72E4BFE
:1001C0001A68314B9A4200D0FEE72C4B1A682F4B2D
:1001D0009A42F9D1274B2E4A13602E4A13602E4BB8
:1001E00005E00020106004329342FAD80B462B4AF7
:1001F000934204D2194651F8082B5B68F4E7244B6C
:100200001B6813B9234B1B6803B1FEE700F072FFB4
:10021000694601A800F0F4FE214B224CE41AA41018
:100220000025AC4214DC204B204CE41AA41000251D
:10023000AC4213DC0099019801F0B4F805461C4B60
:100240001C4CE41AA410002C0EDC284600F0AAFE78
:10025000134B53F8253098470135E2E7124B53F81A
:10026000253098470135E3E7013C114B53F8243022
:100270009847E8E7BABADECA000000207400002000
:10028000E8030008000400087856341232547698C7
:100290007800002014010020000400081004000869
:1002A00010040008100400081004000810040008DE
:1002B000100400081004000808B5FFF765FF00BE31
:1002C000FEE71EF0040F0CBFEFF30880EFF3098088
:1002D0007146414A10472DE9F04182B004468846F4
:1002E000124B5E6B9F6B9D6A1B6B13F0020F03D06A
:1002F0000E4BDB6A002B0CDB0D4800F093FECDF8B3
:1003000000803B4632462946204600F0F7FE00BEFC
:10031000FEE74BF6AB6100F06BFF0028ECD04FF02E
:100320000042024BDA6202B0BDE8F08100ED00E06D
:10033000481F000800BEFEE71EF0040F0CBFEFF3DD
:100340000880EFF309807146244A10472DE9F041F7
:1003500082B004468846084B5E6B9F6B9D6A0748D7
:1003600000F060FECDF800803B463246294620462C
:1003700000F0C4FE00BEFEE700ED00E0581F0008DC
:100380001EF0040F0CBFEFF30880EFF309807146F5
:10039000134A10472DE9F04182B004468846084BC5
:1003A0005E6B9F6B9D6A074800F03CFECDF80080B5
:1003B0003B4632462946204600F0A0FE00BEFEE73E
:1003C00000ED00E0641F000800BEFEE700BEFEE78F
:1003D00000BEFEE770470000D70200084D0300088A
:0803E0009503000800BEFEE7D2
:1003E800B81F00080000002078000020B81F00088F
:1003F8000000001000000010780000201801002004
:080408000000001000000010CC
:1004100010B50446074B1868074BA3FB0030800952
:1004200000F094F8002221464FF0FF3000F04AF827
:10043000002010BD0C000020D34D621008B50B4BFE
:100440001A6842F400721A601A6842F480621A60F4
:100450001A6842F480721A60032000F015F80F2029
:10046000FFF7D6FF00F0DAFF002008BD003C024095
:10047000014B1868704700BF0C010020014B186841
:10048000000C7047002004E010B50446C31E042B86
:100490000FD80A4AD36823F4E0631B041B0C240220
:1004A00004F4E064234343F0BF6343F40033D360B8
:1004B00010BDA421024800F0ABFDEAE700ED00E02A
:1004C000481D000870B505460C4616460F2A24D86C
:1004D0000F2C27D81A4BDB68C3F30223C3F10702A2
:1004E000042A28BF0422191D062920D9033B012113
:1004F00001FA02F2013A14409C4001FA03F3013B75
:1005000033401C43002D14DB2401E4B205F16045A7
:1005100005F5614585F8004370BDBC21094800F030
:1005200077FDD5E7BD21074800F072FDD2E7002333
:10053000DDE705F00F052401E4B2034B5C5570BD07
:1005400000ED00E0481D000814ED00E00138B0F1B6
:10055000807F0AD2064B5860F021064A82F82310A9
:100560000020986007221A6070470120704700BF82
:1005700010E000E000ED00E02DE9F04782B0804699
:100580000F46B54B984223D003F5806398421FD0A5
:1005900003F5806398421BD003F58063984217D01F
:1005A00003F58063984213D003F5806398420FD01F
:1005B00003F5806398420BD003F58063984207D01F
:1005C00003F58063984203D0C521A44800F020FDC4
:1005D0003B8853B37B68012B22D9112B20D0022BEF
:1005E0001ED0122B1CD09E4A934219D002F58012C5
:1005F000934215D002F58012934211D0A2F5F81261
:1006000093420DD002F58012934209D002F5801278
:10061000934205D0032B03D0C721904800F0F8FC8B
:10062000BB68022B06D800257AE0C6218B4800F073
:10063000EFFCCFE7C821894800F0EAFCF3E73B690B
:10064000FBB1092B1DD0012B1BD0022B19D0032B82
:1006500017D0042B15D0052B13D0062B11D0072B48
:100660000FD0082B0DD00A2B0BD00B2B09D00C2B45
:1006700007D00D2B05D00F2B03D0D921774800F0E0
:10068000C7FCE908083158F8213005F0070292004C
:100690000F20904023EA0003386900FA02F2134366
:1006A00048F821304CE0EC216C4800F0B1FC63E0EC
:1006B000082100E00021A1400A430233694941F8C2
:1006C0002320694B1A686FEA090302EA030178687C
:1006D00010F4803F01D049EA0201634A1160526878
:1006E00003EA0201786810F4003F01D049EA0201F0
:1006F0005D4A5160926803EA0201786810F4801F35
:1007000001D049EA0201584A9160D26813407968E1
:1007100011F4001F01D049EA0203534AD3600135A6
:100720000F2D00F296800124AC403B6804EA0309D7
:100730004C45F4D17B68022B81D0122B3FF47FAF64
:10074000D8F800304FEA450A032606FA0AF6F643BF
:1007500033407A6802F0030202FA0AF21343C8F83F
:1007600000307B685A1E012A03D9112B01D0122BAD
:1007700016D1FB68032B96D8D8F808303340FA68B6
:1007800002FA0AF21343C8F80830D8F8043023EA12
:1007900004047B68C3F30013AB401C43C8F8044057
:1007A000D8F80C301E40BB6803FA0AF31E43C8F8A1
:1007B0000C607B6813F0805FB1D0002301932B4B5A
:1007C0005A6C42F480425A645B6C03F48043019398
:1007D000019BAB08991C234A52F8212005F0030124
:1007E0008C000F21A14022EA01021B4880453FF402
:1007F00061AF1F4988451ED001F5806188451CD036
:1008000001F5806188451AD001F58061884518D0CE
:1008100001F58061884516D001F58061884514D0C6
:1008200001F58061884512D001F5806188453FF46B
:100830003FAF09213FE701213DE702213BE70321CB
:1008400039E7042137E7052135E7062133E707219A
:1008500031E702B0BDE8F087000002407C1D0008CF
:100860000000111000380140003C014000380240F7
:100870000004024038B505460C4619B16B695C406E
:100880006C6138BD4FF4E471014800F0C1FBF5E73D
:100890007C1D000830B583B0044603680F2B2DD8AB
:1008A000236813F0010F3CD06368012B05D9052B99
:1008B00003D0FA219F4800F0ABFB9F4B9B6803F0ED
:1008C0000C03042B24D09C4B9B6803F00C03082BD7
:1008D00019D02279994B1A706368002B50D0FFF71A
:1008E000C7FD0546944B1B6813F4003F19D1FFF771
:1008F000BFFD401B6428F5D90320D7E1F5218D48C1
:1009000000F086FBCCE78C4B5B6813F4800FE0D0E3
:10091000894B1B6813F4003F03D06368002B00F081
:10092000C281236813F0020F5CD0E368012B04D965
:100930004FF496717F4800F06BFB23691F2B2ED874
:100940007D4B9B6813F00C0F34D07B4B9B6803F0FE
:100950000C03082B29D0E368002B72D00122784BBE
:100960001A60FFF785FD0546734B1B6813F0020FF5
:1009700058D1FFF77DFD401B0228F5D9032095E1F2
:10098000FFF776FD05466C4B1B6813F4003FC8D09B
:10099000FFF76EFD401B6428F5D9032086E140F285
:1009A0002D11644800F034FBCAE7634B5B6813F415
:1009B000800FD0D1604B1B6813F0020F04D0E368A6
:1009C000012B01D0012071E15B48036823F0F8039B
:1009D0002169F82292FAA2F2B2FA82F201FA02F244
:1009E00013430360236813F0080F4ED06369012B93
:1009F00004D940F26D114F4800F00AFB636993B3CC
:100A00000122504B1A60FFF733FD05464A4B5B6FDE
:100A100013F0020F39D1FFF72BFD401B0228F5D947
:100A2000032043E14448036823F0F8032169F822D6
:100A300092FAA2F2B2FA82F201FA02F213430360CE
:100A4000D0E700223E4B1A60FFF712FD05463A4BF5
:100A50001B6813F0020FC5D0FFF70AFD401B0228E8
:100A6000F5D9032022E10022364B1A60FFF700FD82
:100A70000546314B5B6F13F0020F06D0FFF7F8FC11
:100A8000401B0228F5D9032010E1236813F0040F5E
:100A90005ED0A368012B06D9052B04D040F2971134
:100AA000244800F0B5FA00230193234B1A6C42F05E
:100AB00080521A641B6C03F080530193019B224AFD
:100AC000136843F480731360FFF7D2FC05461E4B96
:100AD0001B6813F4807F06D1FFF7CAFC401B022875
:100AE000F5D90320E2E0227A184B1A70A36883B18B
:100AF000FFF7BEFC0546104B1B6F13F0020F27D10A
:100B0000FFF7B6FC401B41F288339842F3D903202B
:100B1000CCE0FFF7ADFC0546074B1B6F13F0020F4F
:100B200016D0FFF7A5FC401B41F288339842F3D959
:100B30000320BBE0BC1D0008003802400238024020
:100B400000004742800E474200700040703802406B
:100B5000A369022B1FD8A369002B00F0A680554A79
:100B6000926802F00C02082A00F0A280022B18D032
:100B70000022514B1A60FFF77BFC04464D4B1B686B
:100B800013F0007F00F08D80FFF772FC001B02283D
:100B9000F4D903208AE04FF4E671484800F038FAAF
:100BA000D9E7E3693BB1B3F5800F04D040F2D5112A
:100BB000424800F02DFA236A3F2B28D8636A323B63
:100BC000B3F5BF7F29D8A36A022B0AD0042B08D023
:100BD000062B06D0082B04D04FF4EC71374800F0F8
:100BE00017FAE36A043B0B2B1DD80022324B1A6024
:100BF000FFF73EFC05462F4B1B6813F0007F18D013
:100C0000FFF736FC401B0228F5D903204EE04FF4D5
:100C1000EB712A4800F0FCF9D0E740F2D7112748E1
:100C200000F0F6F9CFE740F2D911244800F0F0F9CE
:100C3000DBE7E369226A1343616A47F6C07292FAFE
:100C4000A2F2B2FA82F201FA02F21343A26A520845
:100C5000013A4FF4403191FAA1F1B1FA81F18A40A1
:100C60001343E16A4FF0706292FAA2F2B2FA82F292
:100C700001FA02F213430F4A536001220E4B1A602D
:100C8000FFF7F6FB04460B4B1B6813F0007F06D101
:100C9000FFF7EEFB001B0228F5D9032006E0002039
:100CA00004E0002002E0012000E0002003B030BD9D
:100CB0000120FBE70038024060004742BC1D0008ED
:100CC000214B9B6803F00C03042B3AD0082B01D076
:100CD0001E4870471C4B586800F03F005B6813F4D7
:100CE000800F1ED01A4AB2FBF0F2174B586847F635
:100CF000C073184093FAA3F3B3FA83F3D84000FB10
:100D000002F0114B5B6803F440334FF4403292FA27
:100D1000A2F2B2FA82F2D34001335B00B0FBF3F0EF
:100D200070470A4AB2FBF0F2074B586847F6C073A7
:100D3000184093FAA3F3B3FA83F3D84000FB02F010
:100D4000DFE70348704700BF003802400024F4008A
:100D500000127A0070B504460D460368013B0E2B65
:100D600011D8072D15D88A4B1B6803F00F039D423D
:100D700015D9EBB2864A1370136803F00F039D4236
:100D80000DD0012070BD40F23721824800F040F9BB
:100D9000E7E74FF40E717F4800F03AF9E3E7236884
:100DA00013F0020F1DD0A368A3B1802B12D0902B9B
:100DB00010D0A02B0ED0B02B0CD0C02B0AD0D02B33
:100DC00008D0E02B06D0F02B04D040F24F21714820
:100DD00000F01EF9704A936823F0F003A1680B43FA
:100DE0009360236813F0010F6DD06368032B29D83B
:100DF0006368012B2CD09A1E012A30D9664A1268EA
:100E000012F0020F00F0C28063498A6822F00302E8
:100E100013438B60FFF72CFB06466368012B25D03C
:100E2000022B32D0032B3FD05B4B9B6813F00C0F8F
:100E300049D0FFF71DFB801B41F288339842F3D95C
:100E4000032070BD40F25621524800F0E1F8CFE790
:100E5000514A126812F4003FD6D1012070BD4E4AAB
:100E6000126812F0007FCFD1012070BD4A4B9B6801
:100E700003F00C03042B26D0FFF7FAFA801B41F293
:100E800088339842F2D9032070BD434B9B6803F02E
:100E90000C03082B17D0FFF7EBFA801B41F28833C5
:100EA0009842F2D9032070BD3B4B9B6803F00C03C2
:100EB0000C2B08D0FFF7DCFA801B41F288339842F4
:100EC000F2D9032070BD324B1B6803F00F039D4223
:100ED00009D2EAB22E4B1A701B6803F00F039D4231
:100EE00001D0012070BD236813F0040F19D0E3680E
:100EF00083B1B3F5805F0DD0B3F5A05F0AD0B3F531
:100F0000C05F07D0B3F5E05F04D04FF42D712148E6
:100F100000F07EF8204A936823F4E053E1680B4325
:100F20009360236813F0080F1AD0236983B1B3F5D7
:100F3000805F0DD0B3F5A05F0AD0B3F5C05F07D0D6
:100F4000B3F5E05F04D040F2BB21124800F060F836
:100F5000114A936823F46043216943EAC103936013
:100F6000FFF7AEFE0C4B9B6803F0F003F02292FA01
:100F7000A2F2B2FA82F2D340084AD35CD840084BBE
:100F800018600F20FFF744FA002070BD012070BDEB
:100F9000003C0240BC1D000800380240AC1D0008A7
:100FA0000C000020FEE7000008B5034800F052F8EE
:100FB0000120FFF7F7FF00BFEC1D000808B503464E
:100FC0000C4A12685AB10B4A1068033323F003032A
:100FD0000344094A934206D8064A136008BD0749EC
:100FE000044A1160EFE700F01BFA0C2303604FF096
:100FF000FF3008BD7C00002000FC0120180100200B
:1010000001230360014B0B60704700BF0400002008
:1010100008B50A460146024800F004F8FFF7C4FF8D
:10102000001E00080FB400B583B004AB53F8042BC6
:1010300001938021064800F02DFA002803DD0146C7
:10104000034800F047F803B05DF804EB04B07047C4
:101050008400002010B5044600F0E8F9014620465F
:1010600000F038F80121024800F034F810BD00BF4C
:10107000C41E00082DE9F04385B004460F464356D0
:101080000BB10E461EE0042528462146ABBE0446A1
:10109000384605B0BDE8F08314F9011B04AA1A44D0
:1010A00002F8101C0133AB42F6D304AA1344002209
:1010B00003F8102CE9464FF0040840464946ABBE01
:1010C0008046761B002EE3D03546102E28BF102513
:1010D0000023E8E708B5FFF7CDFF08BD08B500F02D
:1010E00097F8024B024A9A6008BD00BF00ED00E08D
:1010F0000000000808B500F0ABF808BDF8B50446DC
:101100000D4617461E462748FFF78CFF21682648E4
:10111000FFF788FF61682548FFF784FFA16824482E
:10112000FFF780FFE1682348FFF77CFF2169224831
:10113000FFF778FF61692148FFF774FFA169204834
:10114000FFF770FFE1691F48FFF76CFF1E48FFF7CC
:1011500069FF29461D48FFF765FF1D4CE16A1D48E0
:10116000FFF760FF216B1C48FFF75CFFE16B1B483A
:10117000FFF758FF15F0800F0AD115F4004F0CD17E
:101180001748FFF74FFF06991648FFF74BFFF8BDCA
:1011900039461548FFF746FFEFE731461348FFF79A
:1011A00041FFEDE72C1E00083C1E00084C1E000805
:1011B0005C1E00086C1E00087C1E00088C1E0008C7
:1011C0009C1E0008AC1E0008BC1E0008C81E0008BB
:1011D00000ED00E0D81E0008E81E0008F81E000818
:1011E000281F0008301F0008081F0008181F0008EB
:1011F00083691A888A4201D0002070470268033A46
:10120000012A03D802338361012070470020704710
:101210000C4B1A6842F001021A60002199601A68AA
:1012200022F0847222F480321A60074A5A601A68E7
:1012300022F480221A60D9604FF00062034B9A605A
:10124000704700BF003802401030002400ED00E07D
:10125000224B9B6803F00C03042B14D0082B16D0F0
:101260001BB11F4A1F4B1A6002E01D4A1D4B1A603A
:101270001A4B9B68C3F303131B4AD15C194A1368CA
:10128000CB4013607047194A164B1A60F0E7134BB6
:101290005A685B6803F03F0312F4800F13D0134ABF
:1012A000B2FBF3F20D4B5B68C3F3881303FB02F34D
:1012B0000A4A5268C2F3014201325200B3FBF2F310
:1012C000084A1360D4E7064AB2FBF3F2034B5B68AB
:1012D000C3F3881303FB02F3EAE700BF00380240C0
:1012E0000024F4000C000020741F000800127A0093
:1012F000FEE7000000B595B000210191264B1A6C65
:1013000042F080521A641B6C03F080530193019BDE
:101310000291224B1A6842F480421A601B6803F45F
:1013200080430293029B01230393049302230993B6
:101330004FF480020A9208220B924FF4A8720C928A
:101340000D9307230E9303A8FFF7A4FAC8B90F2340
:101350000F9302231093002311934FF4A053129381
:101360004FF48053139305210FA8FFF7F3FC50B9F6
:10137000FFF784F841F20103984206D015B05DF8FA
:1013800004FBFFF7B5FFFFF7B3FF054A136843F40B
:1013900080731360F2E700BF003802400070004025
:1013A000003C024000B589B0FFF748F8FFF7A2FF04
:1013B00000240194164B1A6B42F008021A631A6B50
:1013C00002F008020192019A02941A6B42F00102A3
:1013D0001A631B6B03F001030293029B4FF48053CB
:1013E0000393112304930323069303A90948FFF7EA
:1013F000C3F80123039304940593069303A90648B5
:10140000FFF7BAF84FF480510248FFF733FAF9E7D3
:1014100000380240000C024000000240704700000B
:10142000014B1868704700BF10000020034613F8F6
:10143000012B002AFBD1181A0138704730B5141E51
:1014400005469BB0184605DA8B232B604FF0FF3022
:101450001BB030BD4FF40273ADF80C3014BF04F173
:10146000FF332346029305934FF6FF7300910491D7
:10147000ADF80E3002461E9B6946284600F074F80F
:10148000431CBCBF8B232B60002CE1D0009B0022AF
:101490001A70DDE707B5009313460A460146034874
:1014A0000068FFF7CBFF03B05DF804FB10000020DD
:1014B0002DE9F0478E689E4282460C46914698463A
:1014C00035D88A8912F4906F31D0256809696F1A6E
:1014D0006569022305EB450595FBF3F508F101036A
:1014E0003B449D4238BF1D46530531D5294600F087
:1014F0008BFB064650B90C23CAF80030A38943F091
:101500004003A3814FF0FF30BDE8F0873A462169E0
:1015100000F006FBA38923F4906343F08003A381CA
:10152000266165613E44ED1B2660A5604646464542
:1015300028BF464632464946206800F0FCFAA368B8
:101540009B1BA36023681E4426600020BDE8F08733
:101550002A4600F0B7FB06460028E1D12169504633
:1015600000F004FBC7E700002DE9F04F9DB0804676
:1015700003938B891C060D4616460FD50B696BB974
:10158000402100F041FB2860286128B90C23C8F8ED
:1015900000304FF0FF30C5E040236B61002309931A
:1015A00020238DF8293030238DF82A304FF0010B9D
:1015B00037463C4614F8013B002B3CD1B7EB060AFA
:1015C0000BD05346324629464046FFF771FF0130A3
:1015D00000F0A380099B534409933B78002B00F053
:1015E0009C8000234FF0FF320493079305920693EB
:1015F0008DF853301A9305222178504800F040FAB4
:10160000671C049BD8B9D90644BF20228DF853200B
:101610001A0744BF2B228DF8532022782A2A16D08D
:10162000079A00210A20274601343B78303B092BDA
:1016300051D9C9B111E0252BC0D02746B9E73F4A9F
:10164000801A0BFA00F0184304903C46D3E7039A43
:10165000111D12680391002A01DB079204E0524237
:1016600043F00203079204933B782E2B0ED17B7834
:101670002A2B07F1010132D1039B1A1D1B6803922B
:10168000002BB8BF4FF0FF33023705932C4C39784D
:101690000322204600F0F4F938B14023001B03FA7E
:1016A00000F0049B034304930137397825488DF8F3
:1016B000281006227E1C00F0E3F9002835D0224BCA
:1016C000FBB9039B073323F0070308330393099BFC
:1016D0004B4409936CE700FB02320121A3E700238E
:1016E000059318460A240F4601313A78303A092A00
:1016F00003D9002BCAD00590C8E704FB00200123C2
:10170000F1E703AB00932A46104B04A94046AFF320
:101710000080B0F1FF3F8146D9D1AB895B063FF530
:1017200038AF09981DB0BDE8F08F03AB00932A468F
:10173000064B04A9404600F081F8EAE7841F000840
:101740008A1F00088E1F000800000000B114000866
:101750002DE9F04791461F468A680B69DDF8208025
:101760009342B8BF1346C9F8003091F843200646AB
:101770000C4612B10133C9F800302368990642BF04
:10178000D9F800300233C9F80030256815F0060595
:1017900007D104F1190AE368D9F800209B1A9D4289
:1017A00029DB94F843302268003318BF01239206E6
:1017B0002ED404F1430239463046C047013021D0CF
:1017C0002368E568D9F8002003F00603042B08BF5E
:1017D000AD1AA36822690CBF25EAE575002593427E
:1017E000C4BF9B1AED184FF000091A344D451BD1A8
:1017F0000020BDE8F0870123524639463046C047F5
:10180000013003D14FF0FF30BDE8F0870135C2E76A
:10181000E1185A1C302081F84300224494F8451006
:1018200082F843100233C4E701232246394630468A
:10183000C0470130E6D009F10109D7E72DE9F043AF
:1018400017460A7E85B06E2A984606460C460C9BC3
:1018500001F1430E00F0BC801AD8632A2ED00AD8BA
:10186000002A00F0C880582A00F08A8004F142055E
:1018700084F842202AE0642A01D0692AF6D121683E
:101880001A6811F0800F23D0111D1960136827E02A
:10189000732A00F0B48008D86F2A2AD0702AE5D1C4
:1018A0000A6842F020020A6003E0752A21D0782AF3
:1018B000DCD1782284F845206E4964E01A6801F191
:1018C0004205111D1960136884F842300123A3E01A
:1018D00011F0400F02F104011960D7D0B2F90030C5
:1018E000002B03DA2D225B4284F8432062490A224E
:1018F00017E02068196810F0800F03D0081D1860E9
:101900000B6806E010F0400F01F104001860F7D0FA
:101910000B8859496F2A14BF0A220822002084F834
:1019200043006568A560002DC0F29C80206820F00F
:1019300004002060002B3FD1002D40F095807546BB
:10194000082A0BD12368DA0708D5236962689A420E
:10195000DEBF302305F8013C05F1FF35AEEB050392
:101960002361CDF800803B4603AA21463046FFF7AD
:10197000EFFE013055D14FF0FF3005B0BDE8F083E8
:1019800081F845203C492268186812F0800F00F168
:1019900004051D6001D0036802E05506FBD50388ED
:1019A000D00744BF42F0200222601BB9226822F017
:1019B000200222601022B1E77546B3FBF2F002FB71
:1019C0001033CB5C05F8013D03460028F5D1B7E79D
:1019D00008681A68496910F0800F04D0101D18605B
:1019E0001368196007E010F0400F02F1040018605E
:1019F0001368F6D01980002323617546B1E71A6891
:101A0000111D1960156862680021284600F038F839
:101A100008B1401B606063682361002384F8433091
:101A20009FE723692A4639463046C0470130A2D095
:101A300023689B0707D5002504F11909E368039A79
:101A40009B1A9D4205DBE068039B9842B8BF18468D
:101A500093E701234A4639463046C04701308AD0D1
:101A60000135EBE7002BA7D10B7884F8423004F165
:101A7000420565E7A61F0008951F0008000000004A
:101A800001F0FF01102A2BDB10F0070F08D010F82F
:101A9000013B013A8B422DD010F0070F42B3F6D133
:101AA000F0B441EA012141EA014122F007047FF04C
:101AB00000070023F0E80256083C85EA010586EAA3
:101AC000010685FA47F5A3FA87F586FA47F6A5FADF
:101AD00087F68EB9EED1F0BC01F0FF0102F00702EB
:101AE00032B110F8013B013A83EA010313B1F8D196
:101AF0000020704701387047002D06BF3546033877
:101B0000073815F0010F07D1013015F4807F02BFAF
:101B1000013015F4C03F0130F0BC0138704700BF00
:101B200010B5431E0A44914200D110BD11F8014B7B
:101B300003F8014FF7E7884210B501EB020303D821
:101B4000421E99420CD110BD9842F9D28118D21A86
:101B5000D34200D110BD13F8014D01F8014DF7E754
:101B600011F8014B02F8014FEBE7000038B50546CC
:101B7000002945D051F8043C0C1F002BB8BFE418D5
:101B800000F0D6F81F4A1368104633B9636014603A
:101B90002846BDE8384000F0CCB8A3420CD92168F3
:101BA0006218934204BF1A685B68636004BF5218EE
:101BB00022600460ECE713465A680AB1A242FAD9DF
:101BC00019685818A0420BD1206801445818824265
:101BD0001960DDD1106852685A6001441960D7E776
:101BE00002D90C232B60D3E7206821188A4204BF56
:101BF00011685268626004BF091821605C60C7E721
:101C000038BD00BF0401002070B5CD1C25F00305D0
:101C100008350C2D38BF0C25002D064601DBA942E6
:101C200003D90C233360002070BD00F081F8234AF3
:101C30001468214691B9224C23681BB9304600F044
:101C400067F820602946304600F062F8431C26D130
:101C50000C233360304600F06CF8E4E70B685B1B44
:101C60001AD40B2B0FD90B60CD50CC18304600F096
:101C700060F804F10B00231D20F00700C31A1BD0ED
:101C80005A42E25070BD8C420DBF63684B6863607E
:101C9000136018BF0C46E9E70C464968CAE7C41C44
:101CA00024F00304A04205D0211A304600F030F899
:101CB0000130CDD02560D9E770BD00BF0401002000
:101CC00008010020F8B5074614460E4621B9114612
:101CD000BDE8F840FFF798BF22B9FFF747FF254658
:101CE0002846F8BD00F026F884420FD92146384630
:101CF000FFF78AFF05460028F2D031462246FFF75B
:101D00000FFF31463846FFF731FFE9E73546E7E791
:101D100038B5064C0023054608462360FFF74EF908
:101D2000431C02D1236803B12B6038BD1001002091
:101D30007047704751F8040C0028A0F10400BCBFA4
:101D40000B58C018704700002E2E2F7379737465DE
:101D50006D2F7372632F73746D333266342D686127
:101D60006C2F73746D3332663478785F68616C5FA2
:101D7000636F727465782E63000000002E2E2F733F
:101D8000797374656D2F7372632F73746D3332665C
:101D9000342D68616C2F73746D3332663478785FDC
:101DA00068616C5F6770696F2E630000000000005F
:101DB0000102030401020304060708092E2E2F73F3
:101DC000797374656D2F7372632F73746D3332661C
:101DD000342D68616C2F73746D3332663478785F9C
:101DE00068616C5F7263632E6300000061626F72F2
:101DF0007428292C2065786974696E672E2E2E0050
:101E00006173736572745F706172616D28292066F9
:101E100061696C65643A2066696C652022257322CD
:101E20002C206C696E652025640A00005374616380
:101E30006B206672616D653A0A0000002052302006
:101E40003D2020253038580A000000002052312063
:101E50003D2020253038580A000000002052322052
:101E60003D2020253038580A000000002052332041
:101E70003D2020253038580A000000002052313221
:101E8000203D20253038580A00000000204C522008
:101E90003D2020253038580A000000002050432003
:101EA0003D2020253038580A0000000020505352B1
:101EB000203D20253038580A000000004653522F9C
:101EC0004641523A0A0000002043465352203D202A
:101ED00020253038580A00002048465352203D2023
:101EE00020253038580A00002044465352203D2017
:101EF00020253038580A00002041465352203D200A
:101F000020253038580A0000204D4D464152203DD2
:101F100020253038580A00002042464152203D20FA
:101F200020253038580A00004D6973630A0000000C
:101F3000204C522F4558435F52455455524E3D2038
:101F4000253038580A0000005B48617264466175AC
:101F50006C745D0A000000005B4275734661756C2D
:101F6000745D0A005B55736167654661756C745DED
:101F70000A0000000000000000000000010203044D
:101F800006070809232D302B2000686C4C0065667D
:101F900067454647003031323334353637383941BA
:101FA00042434445460030313233343536373839D0
:071FB00061626364656600D5
:101FB8007856341280000020000000000024F4004D
:101FC80014000020000000000000000000000000D5
:101FD80000000000000000000000000000000000F9
:101FE80000000000000000000000000000000000E9
:101FF80000000000000000000000000000000000D9
:1020080000000000000000000000000000000000C8
:1020180000000000000000000000000000000000B8
:0820280000000000325476981C
:040000050800018965
:00000001FF
