:020000040800F2
:100000000000022055020008590200085B020008A7
:100010007102000873020008890200080000000055
:100020000000000000000000000000009F02000827
:10003000A102000800000000A3020008A5020008B9
:10004000B9020008B9020008B9020008B9020008A4
:10005000B9020008B9020008B9020008B902000894
:10006000B9020008B9020008B9020008B902000884
:10007000B9020008B9020008B9020008B902000874
:10008000B9020008B9020008B9020008B902000864
:10009000B9020008B9020008B9020008B902000854
:1000A000B9020008B9020008B9020008B902000844
:1000B000B9020008B9020008B9020008B902000834
:1000C000B9020008B9020008B9020008B902000824
:1000D000B9020008B9020008B9020008B902000814
:1000E000B9020008B9020008B9020008B902000804
:1000F000B9020008B9020008B9020008B9020008F4
:10010000B9020008B9020008B9020008B9020008E3
:10011000B9020008B9020008B9020008B9020008D3
:10012000B9020008B9020008B9020008B9020008C3
:10013000B9020008B9020008B9020008B9020008B3
:10014000B9020008B9020008B9020008B9020008A3
:10015000B9020008B9020008B9020008B902000893
:10016000B9020008B9020008B9020008B902000883
:10017000B9020008B9020008B90200080000000036
:10018000B9020008B902000807B500F0B5FB274B1B
:100190002748834226D3274B274900208B422DD363
:1001A00000F06EFC254E264C01A9684600F09CFB31
:1001B000A41BA4100025AC4229DC224E224CA41B17
:1001C000A4100025AC4227DC9DE8030000F061FC90
:1001D0001E4D1F4C641B0646A410002C21DC30462B
:1001E00000F07EFB93E806000C3353F8044C944275
:1001F000CFD951F8045B42F8045BF8E753F8082BB9
:1002000053F8044C9442C9D942F8040BFAE756F863
:10021000253098470135CEE756F825309847013507
:10022000D0E7013C55F824309847D6E7BC020008D7
:10023000D4020008D4020008E4020008E402000826
:10024000E4020008E4020008E4020008E4020008F6
:10025000E402000814480047FEE71EF0040F0CBF3C
:10026000EFF30880EFF309807146104A1047FEE76C
:10027000FEE71EF0040F0CBFEFF30880EFF30980D8
:1002800071460B4A1047FEE71EF0040F0CBFEFF358
:100290000880EFF309807146064A1047FEE7FEE743
:1002A000FEE7FEE770470000890100086F020008C2
:0A02B000870200089D020008FEE727
:1002BC00B80A0008000000200C000020B80A000852
:1002CC0000000010000000100C00002014000020A2
:0802DC000000001000000010FA
:1002E40010B5084B044618684FF47A73B0FBF3F06A
:1002F40000F070F8002221464FF0FF3000F036F88D
:10030400002010BD0800002008B50B4B1A6842F409
:1003140000721A601A6842F480621A601A6842F421
:1003240080721A60032000F00FF80F20FFF7D8FF47
:1003340000F0AEFB002008BD003C0240014B1868F1
:10034400704700BF10000020074AD36823F4E0631D
:100354001B041B0C43F0BF63000243F4003300F49E
:10036400E0600343D360704700ED00E0174B30B505
:10037400DC68C4F30224C4F10703251D042B28BF41
:100384000423062D4FF0010505FA03F303F1FF33AF
:100394008CBF033C00241940A14005FA04F4013C3D
:1003A4002240002842EA01024FEA0212AFBF00F1E4
:1003B400604000F00F00064BD2B2A5BF00F56140CB
:1003C400D2B21A5480F8002330BD00BF00ED00E023
:1003D40014ED00E00138B0F1807F0AD2064B074AE1
:1003E4005860F02182F823100020072298601A60D8
:1003F40070470120704700BF10E000E000ED00E00E
:10040400044B1A6804280CBF42F0040222F00402D0
:100414001A60704710E000E00368F7B50446D80797
:1004240038D4236899076DD423681E0700F1B98076
:1004340023685D0728D500230193A64BA64D1A6CAB
:1004440042F080521A641B6C03F080530193019BA9
:100454002B6843F480732B60FFF770FF06462B680C
:10046400DA0540F1C0809D4B227A1A70A368002BF4
:1004740000F0C780FFF762FF964D064641F28837C9
:100484002B6F9B0740F1B680A269002A40F0C98017
:10049400002015E08F4B9A6802F00C02042A07D062
:1004A4009A6802F00C02082A0CD15B685A0209D53A
:1004B400884B1B689B03B4D56368002BB1D1012022
:1004C40003B0F0BD864B22791A7063686BB1FFF7F5
:1004D40035FF804D06462B689F03A2D4FFF72EFFFD
:1004E400801B6428F7D90320EAE7FFF727FF794D3B
:1004F40006462B68980394D5FFF720FF801B6428D9
:10050400F7D9F0E7734B9A6812F00C0F07D09A688A
:1005140002F00C02082A16D15B68590213D46D4B01
:100524001A68920702D5E268012AC8D11868F8222D
:1005340092FAA2F2B2FA82F122698A4020F0F8011A
:100544000A431A6070E7E268664BDAB101221A6066
:10055400FFF7F4FE5F4D06462B689B070CD5296810
:10056400F82393FAA3F3B3FA83F22369934021F0B7
:10057400F80213432B6057E7FFF7E0FE801B0228C5
:10058400EAD9B0E71A60FFF7D9FE524D06462B6848
:100594009F077FF549AFFFF7D1FE801B0228F6D9EC
:1005A400A1E76269504B7AB101221A60FFF7C6FED7
:1005B400484D06466B6F98073FF53AAFFFF7BEFE0E
:1005C400801B0228F6D98EE71A60FFF7B7FE414D6B
:1005D40006466B6F99077FF52BAFFFF7AFFE801BC5
:1005E4000228F6D97FE7FFF7A9FE801B02287FF6D1
:1005F40036AF78E7FFF7A2FE801BB8427FF640AF24
:1006040071E7FFF79BFE334D064641F288372B6FA7
:1006140098077FF539AFFFF791FE801BB842F6D9F2
:1006240061E72C4DAB6803F00C03082B3FF447AF94
:100634002E4E0023022A33603ED1FFF77FFE074689
:100644002B68990132D447F6C07797FAA7F74FF48D
:100654004032B7FA87F792FAA2F24FF07061B2FA19
:1006640082F091FAA1F1226AE3691343626A02FA01
:1006740007F7A26A5208013A82403B431343E26AF5
:10068400144CB1FA81F102FA01F10B436B600123BE
:100694003360FFF753FE054623689A013FF5F8AE31
:1006A400FFF74CFE401B0228F6D91CE7FFF746FE75
:1006B400C01B0228C4D916E7FFF740FE04462B6886
:1006C4009B017FF5E5AEFFF739FE001B0228F6D942
:1006D40009E700BF00380240007000407038024053
:1006E4000238024000004742800E47426000474201
:1006F400194A936803F00C03042B10B503D0082B9C
:1007040003D0164810BD164810BD5168536801F057
:100714003F0113F4800F47F6C074536894FAA4F0B1
:10072400B0FA80F003EA040323FA00F314BF0C4880
:100734000A48B0FBF1F05843074B4FF440325B6872
:1007440092FAA2F2B2FA82F203F44033D3400133B4
:100754005B00B0FBF3F010BD003802400024F4004D
:1007640000127A00564B1A6802F00F028A422DE9F1
:10077400F04105460E4630D32A68940737D4D00793
:100784003DD44F4B1A6802F00F029642C0F08880A5
:100794002A68510700F18C80130707D5494A296953
:1007A400936823F4604343EAC1039360FFF7A0FF17
:1007B400444BF0229B6892FAA2F2B2FA82F203F05E
:1007C400F003D340404AD35CD840404B18600F201C
:1007D400FFF786FD0020BDE8F081CAB21A701B68DD
:1007E40003F00F039942C7D00120BDE8F0813549D9
:1007F400A8688B6823F0F00303438B60BFE76A6843
:10080400304B012A1ED11B6813F4003FECD02D4C51
:10081400A36823F003031343A360FFF78FFD6B6802
:10082400012B074641F2883816D1A36803F00C0364
:10083400042BA6D0FFF782FDC01B4045F5D9032049
:10084400BDE8F081911E01291B6802D813F0007FD6
:10085400DCE713F0020FD9E7022B0AD1A36803F0F7
:100864000C03082B8DD0FFF769FDC01B4045F5D95B
:10087400E5E7032B0FD1A36803F00C030C2B80D006
:10088400FFF75CFDC01B4045F5D9D8E7FFF756FDDF
:10089400C01B4045D3D8A36813F00C0FF6D170E702
:1008A400F2B21A701B6803F00F039E429CD16FE7EB
:1008B4000449E8688B6823F4E05303438B606BE7D7
:1008C400003C024000380240960A0008080000205C
:1008D400014B1868704700BF0800002008B500F0FD
:1008E40015F8000001230360014B0B60704700BF43
:1008F4000000002008B500F01BF8024B024A9A6081
:1009040008BD00BF00ED00E000000008BFF34F8FFA
:100914000549064BCA6802F4E0621343CB60BFF397
:100924004F8F00BFFDE700BF00ED00E00400FA05B3
:100934000C4B1A68002142F001021A6099601A688F
:1009440022F0847222F480321A60074A5A601A68CC
:1009540022F480221A60D960044B4FF000629A603E
:10096400704700BF003802401030002400ED00E062
:10097400174A1849936803F00C03042B10B50DD0E3
:10098400082B0DD0144B0B60114B144A9B68C3F316
:100994000313D25C0B68D3400B6010BD104BF2E71D
:1009A4005468506852686302C2F3881200F03F0032
:1009B4004CBF0B4B084BB3FBF0F35343044A526850
:1009C400C2F3014201325200B3FBF2F3DBE700BF92
:1009D40000380240080000200024F400A60A0008A1
:1009E40000127A0030B595B00024224B01941A6CA1
:1009F40042F080521A641B6C03F080530193019BF4
:100A04001D4B02941A6842F480421A601B6803F476
:100A140080430293029B0123089309934FF48003BC
:100A24000F93082310934FF4A8730225119308A879
:100A34000723139312950E95FFF7EEFC0F230393F0
:100A44004FF4A0530521069303A84FF48053079352
:100A540004950594FFF786FEFFF73AFF4FF47A7387
:100A6400B0FBF3F0FFF7B6FC0420FFF7C9FC15B0A8
:100A740030BD00BF003802400070004008B5FFF7E9
:100A840043FCFFF7AFFFBDE80840FFF771BFFEE787
:100A9400704700000000010203040102030406077A
:100AA400080900000000000000000102030406071A
:020AB40008092F
:0C0AB8000C000020000000000024F400EE
:040000050800018965
:00000001FF
